GR2262110000000269000000120130506                                                                                                                               
GR226222000000126900004516574201111110256080003422         000004411297437                 0103839    269000000200106032AAAAAA                            1     
GR22623399999992690000001                                                                                                                                       
